:020000040800F2
:1000000048070020DD010008230A00081B0A000839
:100010001F0A00086D060008EB120008000000002F
:10002000000000000000000000000000790D000842
:100030007106000800000000A90A0008650E00080B
:10004000F7010008F7010008F7010008F7010008B0
:10005000F7010008F7010008F7010008F7010008A0
:10006000F7010008F7010008F7010008F701000890
:10007000F7010008F7010008F7010008F701000880
:10008000F7010008F7010008F7010008F701000870
:10009000F7010008F7010008F7010008F701000860
:1000A000F7010008F7010008F7010008F701000850
:1000B000F7010008F7010008C90E0008F701000861
:1000C000F7010008F7010008F7010008F701000830
:1000D000F7010008F701000845100008F7010008C3
:1000E000B9060008F7010008F7010008F701000849
:1000F000F7010008F7010008F7010008F701000800
:10010000F7010008F7010008F7010008F7010008EF
:10011000F7010008F7010008F7010008F7010008DF
:10012000F7010008F7010008F7010008F7010008CF
:1001300000F002F800F042F80AA090E8000C8244B7
:100140008344AAF10107DA4501D100F037F8AFF294
:10015000090EBAE80F0013F0010F18BFFB1A43F0A5
:1001600001031847DC140000FC140000103A24BFFF
:1001700078C878C1FAD8520724BF30C830C144BF0C
:1001800004680C607047000000230024002500264E
:10019000103A28BF78C1FBD8520728BF30C148BFEA
:1001A0000B607047642900F08780732900F011828A
:1001B000002070471FB51FBD10B510BD00F024FA18
:1001C0001146FFF7F7FF01F051F900F042FA03B4CE
:1001D000FFF7F2FF03BC01F038F90000094880473F
:1001E00009480047FEE7FEE7FEE7FEE7FEE7FEE719
:1001F000FEE7FEE7FEE7FEE704480549054A064B31
:1002000070470000690E0008310100084801002015
:1002100048070020480300204803002070470000E2
:100220000FB4044910B503AA029800F0D7F910BC26
:100230005DF814FB180000200FB41CB5084B06AA8B
:100240007B4469460090059800F099F90446002027
:10025000694600F0A7F920461CBC5DF814FB0000BD
:100260006103000070B50C460546012A05D02878C8
:10027000800600D5EA69002302E0012305E05B1C4B
:10028000934202D2E05C0028F9D1A869E618C01AAE
:10029000A861286A184428622846AFF3008004E069
:1002A000D5E9012114F8010B9047B442F8D3284650
:1002B000AFF3008070BD00002DE9F0410646002438
:1002C00010687529314616A510D0AFF300800028BC
:1002D00002DA404213A507E031688A0701D512A56A
:1002E00002E0490704D511A5012401E0AFF3008025
:1002F00000210A2206F1240709E0B0FBF2FCB0FB62
:10030000F2F302FB1C00303078541846491C0028D8
:10031000F3D123462A463046BDE8F04100F0D0B87C
:10032000000000002D0000002B0000002000000055
:100330002DE9F05F894604464FF0000ADFF874B1FA
:10034000FB44C0F820A02046E1688847002874D00C
:10035000252806D0D4E901219047206A401C20625C
:10036000F1E700265F462046E168884720280546D9
:1003700007DB312D05D2781910F8200C08B106439F
:10038000F1E7B00701D526F00406C4F81CA0002749
:10039000C4F818A02A2D09D0284601F04FF838B328
:1003A00004EB8708303DC8F8185019E059F8041BD1
:1003B000204604EB87029161E1688847012F0546DA
:1003C00018D1E069002820DA26F020061DE0D8F8D0
:1003D000180000EB800005EB40003038C8F818002A
:1003E0002046E1688847054601F028F80028EED14C
:1003F000012F0AD02E2D08D12046E16888477F1CA6
:100400000546022F46F02006C4DBA069002803DA67
:10041000404246F00106A061F00701D026F0100628
:100420006C2D0BD0682D09D04C2D39D06A2D35D0CC
:10043000742D35D07A2D33D016E038E0E1682F46A0
:1004400020468847B842054609D16C2F26D04FF484
:100450008060E168064320468847054604E06C2F2B
:100460001AD04FF4807006430DB3A5F1410019284E
:1004700002D8203546F400664A46294620462660C2
:100480004E46FFF78FFE80B101280BD0F61D26F0F7
:10049000070000F1080956E74020E4E78020D8E78C
:1004A0000020D6E706F104094DE7284652E7206A06
:1004B000BDE8F09FE8120000704770477047704732
:1004C0002DE9F0470D4699469246044600F124086E
:1004D0000168880604D5E06921F01001216000E080
:1004E0000120A84201DD471B00E00027A1697A191D
:1004F00002EB0900081AA0612078C00602D4204649
:10050000AFF30080002608E0D4E901211AF80600C4
:100510009047206A401C761C20624E45F4DB207810
:10052000C0060AD52046AFF3008006E0D4E90121D9
:1005300030209047206A401C2062381EA7F1010736
:10054000F4DC07E0D4E9012118F805009047206A9F
:10055000401C2062281EA5F10105F3DC2046AFF304
:1005600000802078000602D50220BDE8F087012037
:10057000FBE7000001694A1C02610878704700B57A
:100580008FB0CDE901310021059105497944CDE9CC
:10059000031011466846FFF7CBFE0FB000BD000008
:1005A000E5FFFFFF0A6802F8010B0A60704710B50B
:1005B000436913B1AFF3008001E0FFF753FE012060
:1005C00010BD127800F124010A7000224A70012245
:1005D000EDE711684FF0FF32E9E70000074B70B517
:1005E0000D467B44FFF7CBFF0446284600F008F891
:1005F00010B14FF0FF3070BD204670BD6B0E000093
:10060000007B00F080007047754600F02BF8AE4686
:1006100005006946534620F00700854618B020B50E
:10062000FFF7EAFDBDE820404FF000064FF000075D
:100630004FF000084FF0000B21F00701AC46ACE88A
:10064000C009ACE8C009ACE8C009ACE8C0098D46F7
:10065000704710B50446AFF300802046BDE8104057
:10066000FFF7B5BD00487047E800002000BFFEE777
:10067000704700B5034603E04FF47A7000F005F8C8
:10068000181EA3F10103F7D100BD00EBC001C900A2
:100690004FF0E0225161002191610521116100BFFD
:1006A0004FF0E021096901F480310029F8D00421DC
:1006B0004FF0E0221161704710B54CF250344FF406
:1006C000004000F02DF801281BD100200D490860E2
:1006D0004FF4004000F01EF800BF4FF400410A48FC
:1006E00000F092F90028F8D0002008490870012194
:1006F000074800F02FFC00BF201EA4F101018CB2BE
:10070000FAD110BDB881214200080140200000202C
:1007100000080040014908607047000014040140CF
:10072000014600200022074B1B6803EA0102054B2B
:1007300014331B680B4013B10AB1012000E0002004
:100740007047000000040140002123498279002AFB
:100750003AD00A46126803689A430B461A600A1D8B
:10076000126803689A430B1D1A60027911440A68E3
:1007700003681A430A60184A0832126803689A43E9
:10078000154B08331A601A1D126803689A43124BFE
:100790000C331A604279102A0ED11A1F12680368AE
:1007A0001A430D4B08331A601A1D126803681A4366
:1007B000094B0C331A600DE00749427911440A686D
:1007C00003681A430A6005E0027911440A68036865
:1007D0009A430A60704700000004014030B50022CF
:1007E0008B071C0F0F2303FA04F20B4B8C1053F8EA
:1007F00024309343084C8D1044F8253023468C1048
:1008000053F824308C07240F00FA04F42343024CDD
:100810008D1044F8253030BD080001402DE9F0412D
:10082000024600250026002000230024002791F81E
:1008300003C00CF00F0591F803C00CF0100CBCF1D4
:10084000000F03D091F802C04CEA050591F800C0F2
:10085000BCF1000F31D0146800202BE04FF0010CE8
:100860000CFA00F3B1F800C00CEA03069E4220D156
:1008700083004FF00F0C0CFA03F7BC4305FA03FC9E
:100880004CEA040491F803C0BCF1280F06D14FF0E4
:10089000010C0CFA00FCC2F814C00AE091F803C085
:1008A000BCF1480F05D14FF0010C0CFA00FCC2F866
:1008B00010C0401C0828D1D31460B1F800C0BCF1AE
:1008C000FF0F34DD546800202EE000F1080C4FF0DB
:1008D000010808FA0CF3B1F800C00CEA03069E42C6
:1008E00021D183004FF00F0C0CFA03F7BC4305FA3B
:1008F00003FC4CEA040491F803C0BCF1280F05D1B5
:1009000000F1080C08FA0CF8C2F8148091F803C042
:10091000BCF1480F07D100F1080C4FF0010808FAAC
:100920000CF8C2F81080401C0828CED35460BDE8F3
:10093000F0810000F0B50A460023002400210025C4
:1009400000F00046B6F1004F02D11D4EF16901E002
:100950001B4E7168C0F3034583B200F44016B6F530
:10096000401F08D121F07061154E766826F0706640
:10097000134F7E6012E000F48016B6F5801F06D19A
:10098000032606FA05F4A14341F0706106E0460D26
:10099000360103FA06F6B14341F0706122B1460D0B
:1009A000360103FA06F6314300F00046B6F1004F77
:1009B00002D1034EF16101E0014E7160F0BD000013
:1009C0000000014038B504460D462211042101FA09
:1009D00002F0012100F08AF803208DF8020004F0F3
:1009E0000F010120884080B2ADF800008DF803505F
:1009F0002111044A131503FB01206946FFF70EFF7E
:100A000038BD0000000801400246002093680B40FA
:100A10000BB1012000E00020704700BFFEE700BFDF
:100A2000FEE7704770B5002100230F22C47804B39D
:100A3000154C246804F4E064C4F5E064210AC1F1B3
:100A40000403CA40447804FA03F184781440214333
:100A500009010E4C0678A155047804F01F05012405
:100A6000AC4005786D11AD0005F1E025C5F80041F9
:100A700009E0047804F01F050124AC40044D067819
:100A8000761145F8264070BD0CED00E000E400E072
:100A900080E100E002490143024A11607047000012
:100AA0000000FA050CED00E07047000029B1064A8D
:100AB000D2690243044BDA6104E0034AD2698243FB
:100AC000014BDA61704700000010024029B1064A6C
:100AD00012690243044B1A6104E0034A126982431B
:100AE000014B1A61704700000010024029B1064A0C
:100AF00092690243044B9A6104E0034A926982437B
:100B0000014B9A61704700000010024029B1064A6B
:100B1000D2680243044BDA6004E0034AD26882439D
:100B2000014BDA60704700000010024010B500F081
:100B300027F84FF4803000F0D9F800BF312000F0E2
:100B4000AFF80028FAD04FF4E0114FF4803000F0F5
:100B5000F9F8012000F0F0F800BF392000F0A0F80B
:100B60000028FAD0022000F0FBF800BF00F0B6F831
:100B70000828FBD101211020FFF7B8FF10BD0000AD
:100B80000F48006840F001000D49086008464068C1
:100B90000C4908400A494860084600680A4908406C
:100BA000074908600846006820F48020086008466D
:100BB000406820F4FE0048604FF41F0088607047D2
:100BC000001002400000FFF8FFFFF6FE30B50021E4
:100BD0000022002400232D4D6D6805F00C0121B189
:100BE000042905D0082923D105E0294D056022E01C
:100BF000274D05601FE0254D6D6805F47012234DEB
:100C00006D6805F48034022505EB92421CB9214D34
:100C1000554305600BE01D4D6D6805F400351DB1B1
:100C20001C4D5543056002E0194D5543056002E037
:100C3000174D056000BF00BF144D6D6805F0F00151
:100C40000909154D6B5C0568DD4045600F4D6D6809
:100C500005F4E061090A104D6B5C4568DD40856074
:100C60000A4D6D6805F46051C90A0B4D6B5C45680F
:100C7000DD40C560054D6D6805F44041890B074DA9
:100C80006B5CC568B5FBF3F5056130BD0010024033
:100C900000127A0000093D00000000201000002032
:100CA00010B501460022002300204A11012A02D17A
:100CB000094C236806E0022A02D1074C236A01E0AE
:100CC000054C636A01F01F02012494401C400CB1E2
:100CD000012000E0002010BD0010024002484068E2
:100CE00000F00C0070470000001002401149096834
:100CF00021F480310F4A11601146096821F48021E6
:100D00001160B0F5803F03D0B0F5802F0ED106E022
:100D10000849096841F48031064A116007E0054935
:100D2000096841F4A021034A116000E000BF00BF40
:100D3000704700000010024001490866704700003B
:100D40000000424202460020044B586820F47C1008
:100D500042EA01031843014B5860704700100240FB
:100D600001460020034A506820F003000843506009
:100D70007047000000100240704710B500F002F804
:100D800010BD00000CB500200190009033480068B1
:100D900040F480303149086000BF3048006800F4FA
:100DA000003000900198401C0190009818B90198FB
:100DB000B0F5A06FF1D12948006800F4003010B1FF
:100DC0000120009001E0002000900098012843D10C
:100DD0002348006840F01000214908600846006878
:100DE00020F0070008600846006840F00200086034
:100DF0001A484068194948600846406848600846F3
:100E0000406840F4806048600846406820F47C10E8
:100E100048600846406840F4E810486008460068AA
:100E200040F08070086000BF0C48006800F000705F
:100E30000028F9D00948406820F0030007494860BD
:100E40000846406840F00200486000BF0348406820
:100E500000F00C000828F9D10CBD00000010024081
:100E6000002002407047000010B51348006840F0B1
:100E700001001149086008464068104908400E49C1
:100E80004860084600680E4908400B49086008465B
:100E9000006820F4802008600846406820F4FE00C6
:100EA00048604FF41F008860FFF767FF4FF0006055
:100EB0000449086010BD0000001002400000FFF867
:100EC000FFFFF6FE08ED00E000B585B001211748F0
:100ED00000F04CF840B30121144800F038F81448F1
:100EE0000078401C124908701248006808B90120B7
:100EF00000E000200F4908600D4802780EA1684606
:100F0000FFF79AF969460EA0FFF78AF908480078BA
:100F1000062809D100200649087001200949086007
:100F20000021024800F016F805B000BD000800409E
:100F300020000020B401224225640D0A00000000B8
:100F400025730000B8812142CA4302827047CA4318
:100F50000282704721B1028842F00102028004E05F
:100F600002884FF6FE731A400280704730B5024681
:100F7000002000230024158A05EA0103958905EA6B
:100F8000010413B10CB1012000E0002030BD1AB102
:100F900083890B43838102E083898B43838170477C
:100FA000002202881D4B98420ED01D4B98420BD058
:100FB000B0F1804F08D01B4B984205D01A4B984295
:100FC00002D01A4B984204D14FF68F731A404B88C7
:100FD0001A43174B984207D0164B984204D04FF64D
:100FE000FF431A40CB881A4302808B8883850B8885
:100FF00003850A4B98420BD0094B984208D00E4B00
:10100000984205D00D4B984202D00D4B984201D129
:101010000B7A03860123838270470000002C014075
:10102000003401400004004000080040000C004073
:101030000010004000140040004001400044014006
:101040000048014010B5002440F225510E4800F040
:101050008BF8B8B10D480088802802D300200B49D6
:101060000880094800F03CF9C4B2084801880088AB
:10107000401C064A10800648445440F2255102485C
:1010800000F008F810BD00000044004022000020DD
:101090002800002010B50022002340F66A14A14267
:1010A00000D100BF0A1201249440A3B2DC430480A3
:1010B00010BD21B1828942F40052828104E082890C
:1010C0004DF6FF731A4082817047000010B5044648
:1010D0002048844209D101218803FFF717FD002130
:1010E0004FF48040FFF712FD32E01B48844209D1E3
:1010F00001214804FFF7EAFC00214FF40030FFF71C
:10110000E5FC25E01548844209D101218804FFF758
:10111000DDFC00214FF48020FFF7D8FC18E01048D8
:10112000844209D10121C804FFF7D0FC00214FF40B
:101130000020FFF7CBFC0BE00A48844208D10121D4
:101140000805FFF7C3FC00214FF48010FFF7BEFC39
:1011500010BD00000038014000440040004800403D
:10116000004C00400050004070B5024600240023AF
:101170000025002040F66A16B14200D100BFC1F33D
:10118000421501F01F03012606FA03F3012D02D1D7
:101190009689334006E0022D02D1168A334001E0E1
:1011A000968A33400C12012606FA04F4168834405D
:1011B00013B10CB1012000E0002070BDF0B5034672
:1011C000002400260025002040F66A17B94200D10D
:1011D00000BF1846C1F3421401F01F06012707FAA9
:1011E00006F5012C01D10C3004E0022C01D11030A5
:1011F00000E014301AB107682F43076002E0076867
:10120000AF430760F0BD00002DE9F04786B005460A
:101210000E460024A24600BFA1460027B08900B1B7
:1012200000BF2F462C8A4CF6FF700440F088044320
:101230002C82AC894EF6F3100440B0883189084303
:10124000718908430443AC81AC8A4FF6FF400440E7
:10125000B0890443AC8201A8FFF7B8FC1F4887425D
:1012600002D1DDF810A001E0DDF80CA0A88900F49F
:10127000004040B10AEBCA0000EB0A103168490097
:10128000B0FBF1F807E00AEBCA0000EB0A10316886
:101290008900B0FBF1F86420B8FBF0F004012009EC
:1012A000642101FB1089A88900F4004040B132207C
:1012B00000EBC900B0FBF1F000F00700044308E0C8
:1012C000322000EB09106421B0FBF1F000F00F00B8
:1012D00004432C8106B0BDE8F087000000380140CF
:1012E00001468888C0F30800704700BFFEE7000091
:1012F00010B586B00446012144F20400FFF7F6FB66
:101300002148FFF7E3FE18208DF817004FF4007016
:10131000ADF8140003208DF8160005A91B48FFF74F
:101320007DFA04208DF817000002ADF814000320A8
:101330008DF8160005A91548FFF770FA25208DF8DD
:10134000100001208DF8130003208DF811008DF896
:10135000120004A8FFF766FB00940020ADF80C0013
:101360000C20ADF80A000020ADF80800ADF806002A
:10137000ADF8040069460448FFF746FF0121024822
:10138000FFF797FE06B010BD00380140000801408D
:1013900010B586B0044601210420FFF7A7FB012108
:1013A0004804FFF783FB2348FFF790FE18208DF8D1
:1013B00017000420ADF8140003208DF8160005A9CD
:1013C0001D48FFF72BFA04208DF817000820ADF810
:1013D000140005A91848FFF721FA01940020ADF880
:1013E00010000C20ADF80E000020ADF80C00ADF898
:1013F0000A00ADF8080001A90E48FFF705FF01211A
:101400000C48FFF756FE012240F225510948FFF72C
:10141000D5FE26208DF8000000208DF801008DF803
:10142000020001208DF803006846FFF7FBFA06B0C2
:1014300010BD0000004400400008014030380A2878
:1014400001D2012070470020704700BF70470000A4
:1014500000BF054A128802F04002002AF9D0C2B249
:10146000014B1B1D1A8070470038014008B5FFF77B
:101470005DFB4FF40050ADF8000003208DF8020032
:1014800010208DF8030069461448FFF7C7F90120C2
:101490001349086000F02EF800F08CF84FF4E130AA
:1014A000FFF726FF4FF4E130FFF772FF002413E04F
:1014B00000200C4908604FF4FA70FFF7DAF80120B9
:1014C0000949C1F8B8014FF4FA70FFF7D2F8214684
:1014D000641C06A0FEF7A4FEEAE70000001001402D
:1014E000B4012242B88121420080214225640D0AC4
:1014F0000000000010B510211C20FFF763FA102136
:101500001D20FFF75FFA10211E20FFF75BFA102164
:101510001F20FFF757FA00F011F801200549086075
:101520000549C1F8B4010349083108600249C1F80E
:10153000BC0110BDB0812142008021420EB50121C5
:101540000D20FFF7D3FA01211948FFF7F3F94821DD
:101550000F20FFF737FA48211320FFF733FA48210D
:101560001420FFF72FFA0F210020FFF737F94FF46F
:101570000040019000208DF8080008208DF8090037
:1015800001208DF80A0001A8FFF7DEF84FF4A060F3
:10159000FFF780FA28208DF8000001208DF8030065
:1015A0008DF801008DF802006846FFF73BFA0EBD8A
:1015B000000230001FB501210420FFF777FA002058
:1015C000ADF80A00ADF8060048F69F40ADF80800F7
:1015D00040F2CF70ADF8040000208DF80C0001A996
:1015E0001148FFF7DDFC01210F48FFF7ADFC012298
:1015F00011460D48FFF7CBFC4FF4A060FFF74AFA05
:101600001E208DF8000002208DF8010001208DF8C9
:1016100002008DF803006846FFF704FA0021024833
:10162000FFF798FC1FBD0000000800400400000800
:101630000000000000000002000100001000000097
:101640006016000800000020280000006C0100085F
:1016500088160008280000202007000088010008E4
:101660000000000001020304010203040607080948
:101670000204060800000000000000000000000056
:08168000000000000000000062
:0400000508000131BD
:00000001FF
